{
  "contractName": "OrganDonor",
  "abi": [
    {
      "constant": false,
      "inputs": [
        {
          "internalType": "uint256",
          "name": "_id",
          "type": "uint256"
        },
        {
          "internalType": "string",
          "name": "_name",
          "type": "string"
        },
        {
          "internalType": "string",
          "name": "_blood",
          "type": "string"
        },
        {
          "internalType": "string",
          "name": "_hla",
          "type": "string"
        }
      ],
      "name": "setDonor",
      "outputs": [],
      "payable": false,
      "stateMutability": "nonpayable",
      "type": "function"
    },
    {
      "constant": false,
      "inputs": [
        {
          "internalType": "uint256",
          "name": "_id",
          "type": "uint256"
        },
        {
          "internalType": "string",
          "name": "_name",
          "type": "string"
        },
        {
          "internalType": "string",
          "name": "_blood",
          "type": "string"
        },
        {
          "internalType": "string",
          "name": "_hla",
          "type": "string"
        }
      ],
      "name": "setAcceptor",
      "outputs": [],
      "payable": false,
      "stateMutability": "nonpayable",
      "type": "function"
    },
    {
      "constant": true,
      "inputs": [
        {
          "internalType": "uint256",
          "name": "_acceptorId",
          "type": "uint256"
        }
      ],
      "name": "findMatch",
      "outputs": [
        {
          "internalType": "uint256",
          "name": "_index",
          "type": "uint256"
        },
        {
          "internalType": "uint256",
          "name": "_donorId",
          "type": "uint256"
        },
        {
          "internalType": "string",
          "name": "_donorName",
          "type": "string"
        }
      ],
      "payable": false,
      "stateMutability": "view",
      "type": "function"
    },
    {
      "constant": false,
      "inputs": [
        {
          "internalType": "uint256",
          "name": "_donorId",
          "type": "uint256"
        },
        {
          "internalType": "int256",
          "name": "_acceptorId",
          "type": "int256"
        }
      ],
      "name": "transferOrgan",
      "outputs": [],
      "payable": false,
      "stateMutability": "nonpayable",
      "type": "function"
    }
  ],
  "bytecode": "0x608060405234801561001057600080fd5b506113a2806100206000396000f3fe608060405234801561001057600080fd5b506004361061004c5760003560e01c80630b1344b11461005157806335dadc0a146102445780633b4782491461043757806359c89165146104ec575b600080fd5b6102426004803603608081101561006757600080fd5b81019080803590602001909291908035906020019064010000000081111561008e57600080fd5b8201836020820111156100a057600080fd5b803590602001918460018302840111640100000000831117156100c257600080fd5b91908080601f016020809104026020016040519081016040528093929190818152602001838380828437600081840152601f19601f8201169050808301925050505050505091929192908035906020019064010000000081111561012557600080fd5b82018360208201111561013757600080fd5b8035906020019184600183028401116401000000008311171561015957600080fd5b91908080601f016020809104026020016040519081016040528093929190818152602001838380828437600081840152601f19601f820116905080830192505050505050509192919290803590602001906401000000008111156101bc57600080fd5b8201836020820111156101ce57600080fd5b803590602001918460018302840111640100000000831117156101f057600080fd5b91908080601f016020809104026020016040519081016040528093929190818152602001838380828437600081840152601f19601f820116905080830192505050505050509192919290505050610524565b005b6104356004803603608081101561025a57600080fd5b81019080803590602001909291908035906020019064010000000081111561028157600080fd5b82018360208201111561029357600080fd5b803590602001918460018302840111640100000000831117156102b557600080fd5b91908080601f016020809104026020016040519081016040528093929190818152602001838380828437600081840152601f19601f8201169050808301925050505050505091929192908035906020019064010000000081111561031857600080fd5b82018360208201111561032a57600080fd5b8035906020019184600183028401116401000000008311171561034c57600080fd5b91908080601f016020809104026020016040519081016040528093929190818152602001838380828437600081840152601f19601f820116905080830192505050505050509192919290803590602001906401000000008111156103af57600080fd5b8201836020820111156103c157600080fd5b803590602001918460018302840111640100000000831117156103e357600080fd5b91908080601f016020809104026020016040519081016040528093929190818152602001838380828437600081840152601f19601f820116905080830192505050505050509192919290505050610704565b005b6104636004803603602081101561044d57600080fd5b8101908080359060200190929190505050610792565b6040518084815260200183815260200180602001828103825283818151815260200191508051906020019080838360005b838110156104af578082015181840152602081019050610494565b50505050905090810190601f1680156104dc5780820380516001836020036101000a031916815260200191505b5094505050505060405180910390f35b6105226004803603604081101561050257600080fd5b810190808035906020019092919080359060200190929190505050610d63565b005b604051806060016040528084815260200183815260200182815250600080868152602001908152602001600020600082015181600001908051906020019061056d92919061128d565b50602082015181600101908051906020019061058a92919061128d565b5060408201518160020190805190602001906105a792919061128d565b509050506105b361130d565b60405180604001604052808681526020017fffffffffffffffffffffffffffffffffffffffffffffffffffffffffffffffff81525090506002836040518082805190602001908083835b6020831061062057805182526020820191506020810190506020830392506105fd565b6001836020036101000a0380198251168184511680821785525050505050509050019150509081526020016040518091039020826040518082805190602001908083835b602083106106875780518252602082019150602081019050602083039250610664565b6001836020036101000a0380198251168184511680821785525050505050509050019150509081526020016040518091039020819080600181540180825580915050906001820390600052602060002090600202016000909192909190915060008201518160000155602082015181600101555050505050505050565b60405180606001604052808481526020018381526020018281525060016000868152602001908152602001600020600082015181600001908051906020019061074e92919061128d565b50602082015181600101908051906020019061076b92919061128d565b50604082015181600201908051906020019061078892919061128d565b5090505050505050565b600080606080600160008681526020019081526020016000206001018054600181600116156101000203166002900480601f0160208091040260200160405190810160405280929190818152602001828054600181600116156101000203166002900480156108425780601f1061081757610100808354040283529160200191610842565b820191906000526020600020905b81548152906001019060200180831161082557829003601f168201915b505050505090506060600160008781526020019081526020016000206002018054600181600116156101000203166002900480601f0160208091040260200160405190810160405280929190818152602001828054600181600116156101000203166002900480156108f55780601f106108ca576101008083540402835291602001916108f5565b820191906000526020600020905b8154815290600101906020018083116108d857829003601f168201915b5050505050905060008090505b6002836040518082805190602001908083835b602083106109385780518252602082019150602081019050602083039250610915565b6001836020036101000a0380198251168184511680821785525050505050509050019150509081526020016040518091039020826040518082805190602001908083835b6020831061099f578051825260208201915060208101905060208303925061097c565b6001836020036101000a038019825116818451168082178552505050505050905001915050908152602001604051809103902080549050811015610d58576109e561130d565b6002846040518082805190602001908083835b60208310610a1b57805182526020820191506020810190506020830392506109f8565b6001836020036101000a0380198251168184511680821785525050505050509050019150509081526020016040518091039020836040518082805190602001908083835b60208310610a825780518252602082019150602081019050602083039250610a5f565b6001836020036101000a03801982511681845116808217855250505050505090500191505090815260200160405180910390208281548110610ac057fe5b90600052602060002090600202016040518060400160405290816000820154815260200160018201548152505090507fffffffffffffffffffffffffffffffffffffffffffffffffffffffffffffffff81602001511415610d4a57610b23611327565b60008083600001518152602001908152602001600020604051806060016040529081600082018054600181600116156101000203166002900480601f016020809104026020016040519081016040528092919081815260200182805460018160011615610100020316600290048015610bdd5780601f10610bb257610100808354040283529160200191610bdd565b820191906000526020600020905b815481529060010190602001808311610bc057829003601f168201915b50505050508152602001600182018054600181600116156101000203166002900480601f016020809104026020016040519081016040528092919081815260200182805460018160011615610100020316600290048015610c7f5780601f10610c5457610100808354040283529160200191610c7f565b820191906000526020600020905b815481529060010190602001808311610c6257829003601f168201915b50505050508152602001600282018054600181600116156101000203166002900480601f016020809104026020016040519081016040528092919081815260200182805460018160011615610100020316600290048015610d215780601f10610cf657610100808354040283529160200191610d21565b820191906000526020600020905b815481529060010190602001808311610d0457829003601f168201915b505050505081525050905082826000015182600001518090509750975097505050505050610d5c565b508080600101915050610902565b5050505b9193909250565b610d6b611327565b600080848152602001908152602001600020604051806060016040529081600082018054600181600116156101000203166002900480601f016020809104026020016040519081016040528092919081815260200182805460018160011615610100020316600290048015610e215780601f10610df657610100808354040283529160200191610e21565b820191906000526020600020905b815481529060010190602001808311610e0457829003601f168201915b50505050508152602001600182018054600181600116156101000203166002900480601f016020809104026020016040519081016040528092919081815260200182805460018160011615610100020316600290048015610ec35780601f10610e9857610100808354040283529160200191610ec3565b820191906000526020600020905b815481529060010190602001808311610ea657829003601f168201915b50505050508152602001600282018054600181600116156101000203166002900480601f016020809104026020016040519081016040528092919081815260200182805460018160011615610100020316600290048015610f655780601f10610f3a57610100808354040283529160200191610f65565b820191906000526020600020905b815481529060010190602001808311610f4857829003601f168201915b505050505081525050905060008090505b600282602001516040518082805190602001908083835b60208310610fb05780518252602082019150602081019050602083039250610f8d565b6001836020036101000a038019825116818451168082178552505050505050905001915050908152602001604051809103902082604001516040518082805190602001908083835b6020831061101b5780518252602082019150602081019050602083039250610ff8565b6001836020036101000a0380198251168184511680821785525050505050509050019150509081526020016040518091039020805490508110156112875761106161130d565b600283602001516040518082805190602001908083835b6020831061109b5780518252602082019150602081019050602083039250611078565b6001836020036101000a038019825116818451168082178552505050505050905001915050908152602001604051809103902083604001516040518082805190602001908083835b6020831061110657805182526020820191506020810190506020830392506110e3565b6001836020036101000a0380198251168184511680821785525050505050509050019150509081526020016040518091039020828154811061114457fe5b906000526020600020906002020160405180604001604052908160008201548152602001600182015481525050905084816000015114156112795783600284602001516040518082805190602001908083835b602083106111ba5780518252602082019150602081019050602083039250611197565b6001836020036101000a038019825116818451168082178552505050505050905001915050908152602001604051809103902084604001516040518082805190602001908083835b602083106112255780518252602082019150602081019050602083039250611202565b6001836020036101000a0380198251168184511680821785525050505050509050019150509081526020016040518091039020838154811061126357fe5b9060005260206000209060020201600101819055505b508080600101915050610f76565b50505050565b828054600181600116156101000203166002900490600052602060002090601f016020900481019282601f106112ce57805160ff19168380011785556112fc565b828001600101855582156112fc579182015b828111156112fb5782518255916020019190600101906112e0565b5b5090506113099190611348565b5090565b604051806040016040528060008152602001600081525090565b60405180606001604052806060815260200160608152602001606081525090565b61136a91905b8082111561136657600081600090555060010161134e565b5090565b9056fea265627a7a72315820578c0b2bb65895f45e965b3b75f9aa35c1ca31dcc89351abb33d07261464ee6b64736f6c63430005100032",
  "source": "pragma solidity >=0.5.0 <0.7.0;\r\n\r\n\r\ncontract OrganDonor {\r\n    struct details {\r\n        string name;\r\n        string blood;\r\n        string hla;\r\n    }\r\n\r\n    mapping(uint256 => details) donors;\r\n    mapping(uint256 => details) acceptors;\r\n\r\n    struct donorStatus {\r\n        uint256 donorId;\r\n        int256 acceptorId;\r\n    }\r\n\r\n    mapping(string => mapping(string => donorStatus[])) donorsList;\r\n\r\n    function setDonor(\r\n        uint256 _id,\r\n        string memory _name,\r\n        string memory _blood,\r\n        string memory _hla\r\n    ) public {\r\n        donors[_id] = details(_name, _blood, _hla);\r\n        donorStatus memory ds = donorStatus(_id, -1);\r\n        donorsList[_blood][_hla].push(ds);\r\n    }\r\n\r\n    function setAcceptor(\r\n        uint256 _id,\r\n        string memory _name,\r\n        string memory _blood,\r\n        string memory _hla\r\n    ) public {\r\n        acceptors[_id] = details(_name, _blood, _hla);\r\n    }\r\n\r\n    function findMatch(uint256 _acceptorId)\r\n        public\r\n        view\r\n        returns (uint256 _index, uint256 _donorId, string memory _donorName)\r\n    {\r\n        string memory _blood = acceptors[_acceptorId].blood;\r\n        string memory _hla = acceptors[_acceptorId].hla;\r\n\r\n        for (uint256 i = 0; i < donorsList[_blood][_hla].length; i++) {\r\n            donorStatus memory ds = donorsList[_blood][_hla][i];\r\n            if (ds.acceptorId == -1) {\r\n                details memory donor = donors[ds.donorId];\r\n                return (i, ds.donorId, donor.name);\r\n            }\r\n        }\r\n    }\r\n\r\n    function transferOrgan(uint256 _donorId, int256 _acceptorId) public {\r\n        details memory donor = donors[_donorId];\r\n        for (\r\n            uint256 i = 0;\r\n            i < donorsList[donor.blood][donor.hla].length;\r\n            i++\r\n        ) {\r\n            donorStatus memory ds = donorsList[donor.blood][donor.hla][i];\r\n            if (ds.donorId == _donorId)\r\n                donorsList[donor.blood][donor.hla][i].acceptorId = _acceptorId;\r\n        }\r\n    }\r\n}\r\n",
  "sourcePath": "/mnt/d/final/organ-donor/truffle/contracts/OrganDonor.sol",
  "compiler": {
    "name": "solc",
    "version": "0.5.16+commit.9c3226ce.Emscripten.clang"
  },
  "schemaVersion": "3.2.0",
  "updatedAt": "2020-06-16T01:31:04.244Z",
  "networkType": "ethereum",
  "devdoc": {
    "methods": {}
  },
  "userdoc": {
    "methods": {}
  }
}