{
  "contractName": "OrganTry",
  "abi": [
    {
      "constant": false,
      "inputs": [
        {
          "internalType": "uint256",
          "name": "_id",
          "type": "uint256"
        },
        {
          "internalType": "string",
          "name": "_aname",
          "type": "string"
        },
        {
          "internalType": "string",
          "name": "_ablood",
          "type": "string"
        },
        {
          "internalType": "string",
          "name": "_ahla",
          "type": "string"
        },
        {
          "internalType": "string",
          "name": "_dname",
          "type": "string"
        },
        {
          "internalType": "string",
          "name": "_dblood",
          "type": "string"
        },
        {
          "internalType": "string",
          "name": "_dhla",
          "type": "string"
        },
        {
          "internalType": "string",
          "name": "_demail",
          "type": "string"
        },
        {
          "internalType": "string",
          "name": "_aemail",
          "type": "string"
        },
        {
          "internalType": "uint256",
          "name": "_hospitalid",
          "type": "uint256"
        },
        {
          "internalType": "string",
          "name": "_hname",
          "type": "string"
        }
      ],
      "name": "setkaro",
      "outputs": [],
      "payable": false,
      "stateMutability": "nonpayable",
      "type": "function"
    },
    {
      "constant": false,
      "inputs": [
        {
          "internalType": "uint256",
          "name": "_id",
          "type": "uint256"
        }
      ],
      "name": "findMatch",
      "outputs": [],
      "payable": false,
      "stateMutability": "nonpayable",
      "type": "function"
    },
    {
      "constant": true,
      "inputs": [],
      "name": "newbee",
      "outputs": [
        {
          "internalType": "uint256",
          "name": "",
          "type": "uint256"
        }
      ],
      "payable": false,
      "stateMutability": "view",
      "type": "function"
    },
    {
      "constant": true,
      "inputs": [
        {
          "internalType": "uint256",
          "name": "_id",
          "type": "uint256"
        }
      ],
      "name": "rdn",
      "outputs": [
        {
          "internalType": "string",
          "name": "",
          "type": "string"
        }
      ],
      "payable": false,
      "stateMutability": "view",
      "type": "function"
    },
    {
      "constant": true,
      "inputs": [
        {
          "internalType": "uint256",
          "name": "_id",
          "type": "uint256"
        }
      ],
      "name": "hn",
      "outputs": [
        {
          "internalType": "string",
          "name": "",
          "type": "string"
        }
      ],
      "payable": false,
      "stateMutability": "view",
      "type": "function"
    },
    {
      "constant": true,
      "inputs": [
        {
          "internalType": "uint256",
          "name": "_id",
          "type": "uint256"
        }
      ],
      "name": "rdblood",
      "outputs": [
        {
          "internalType": "string",
          "name": "",
          "type": "string"
        }
      ],
      "payable": false,
      "stateMutability": "view",
      "type": "function"
    },
    {
      "constant": true,
      "inputs": [
        {
          "internalType": "uint256",
          "name": "_id",
          "type": "uint256"
        }
      ],
      "name": "rdhla",
      "outputs": [
        {
          "internalType": "string",
          "name": "",
          "type": "string"
        }
      ],
      "payable": false,
      "stateMutability": "view",
      "type": "function"
    },
    {
      "constant": true,
      "inputs": [
        {
          "internalType": "uint256",
          "name": "_id",
          "type": "uint256"
        }
      ],
      "name": "raname",
      "outputs": [
        {
          "internalType": "string",
          "name": "",
          "type": "string"
        }
      ],
      "payable": false,
      "stateMutability": "view",
      "type": "function"
    },
    {
      "constant": true,
      "inputs": [
        {
          "internalType": "uint256",
          "name": "_id",
          "type": "uint256"
        }
      ],
      "name": "rablood",
      "outputs": [
        {
          "internalType": "string",
          "name": "",
          "type": "string"
        }
      ],
      "payable": false,
      "stateMutability": "view",
      "type": "function"
    },
    {
      "constant": true,
      "inputs": [
        {
          "internalType": "uint256",
          "name": "_id",
          "type": "uint256"
        }
      ],
      "name": "rahla",
      "outputs": [
        {
          "internalType": "string",
          "name": "",
          "type": "string"
        }
      ],
      "payable": false,
      "stateMutability": "view",
      "type": "function"
    },
    {
      "constant": true,
      "inputs": [
        {
          "internalType": "uint256",
          "name": "_id",
          "type": "uint256"
        }
      ],
      "name": "rhosp",
      "outputs": [
        {
          "internalType": "uint256",
          "name": "",
          "type": "uint256"
        }
      ],
      "payable": false,
      "stateMutability": "view",
      "type": "function"
    },
    {
      "constant": true,
      "inputs": [
        {
          "internalType": "uint256",
          "name": "_id",
          "type": "uint256"
        }
      ],
      "name": "demai",
      "outputs": [
        {
          "internalType": "string",
          "name": "",
          "type": "string"
        }
      ],
      "payable": false,
      "stateMutability": "view",
      "type": "function"
    },
    {
      "constant": true,
      "inputs": [
        {
          "internalType": "uint256",
          "name": "_id",
          "type": "uint256"
        }
      ],
      "name": "aemai",
      "outputs": [
        {
          "internalType": "string",
          "name": "",
          "type": "string"
        }
      ],
      "payable": false,
      "stateMutability": "view",
      "type": "function"
    }
  ],
  "bytecode": "0x608060405234801561001057600080fd5b50612218806100206000396000f3fe608060405234801561001057600080fd5b50600436106100cf5760003560e01c806379a181d21161008c578063b7abcf1411610066578063b7abcf1414610ab6578063c30fb98d14610ad4578063c4dc124014610b7b578063f0de4cfb14610c22576100cf565b806379a181d2146109265780638fc0ec81146109cd578063abf5533e14610a0f576100cf565b80630166eff6146100d45780631c1caa781461065c5780632f6a8f3914610703578063375dec1f146107aa5780633b47824914610851578063566235ca1461087f575b600080fd5b61065a60048036036101608110156100eb57600080fd5b81019080803590602001909291908035906020019064010000000081111561011257600080fd5b82018360208201111561012457600080fd5b8035906020019184600183028401116401000000008311171561014657600080fd5b91908080601f016020809104026020016040519081016040528093929190818152602001838380828437600081840152601f19601f820116905080830192505050505050509192919290803590602001906401000000008111156101a957600080fd5b8201836020820111156101bb57600080fd5b803590602001918460018302840111640100000000831117156101dd57600080fd5b91908080601f016020809104026020016040519081016040528093929190818152602001838380828437600081840152601f19601f8201169050808301925050505050505091929192908035906020019064010000000081111561024057600080fd5b82018360208201111561025257600080fd5b8035906020019184600183028401116401000000008311171561027457600080fd5b91908080601f016020809104026020016040519081016040528093929190818152602001838380828437600081840152601f19601f820116905080830192505050505050509192919290803590602001906401000000008111156102d757600080fd5b8201836020820111156102e957600080fd5b8035906020019184600183028401116401000000008311171561030b57600080fd5b91908080601f016020809104026020016040519081016040528093929190818152602001838380828437600081840152601f19601f8201169050808301925050505050505091929192908035906020019064010000000081111561036e57600080fd5b82018360208201111561038057600080fd5b803590602001918460018302840111640100000000831117156103a257600080fd5b91908080601f016020809104026020016040519081016040528093929190818152602001838380828437600081840152601f19601f8201169050808301925050505050505091929192908035906020019064010000000081111561040557600080fd5b82018360208201111561041757600080fd5b8035906020019184600183028401116401000000008311171561043957600080fd5b91908080601f016020809104026020016040519081016040528093929190818152602001838380828437600081840152601f19601f8201169050808301925050505050505091929192908035906020019064010000000081111561049c57600080fd5b8201836020820111156104ae57600080fd5b803590602001918460018302840111640100000000831117156104d057600080fd5b91908080601f016020809104026020016040519081016040528093929190818152602001838380828437600081840152601f19601f8201169050808301925050505050505091929192908035906020019064010000000081111561053357600080fd5b82018360208201111561054557600080fd5b8035906020019184600183028401116401000000008311171561056757600080fd5b91908080601f016020809104026020016040519081016040528093929190818152602001838380828437600081840152601f19601f82011690508083019250505050505050919291929080359060200190929190803590602001906401000000008111156105d457600080fd5b8201836020820111156105e657600080fd5b8035906020019184600183028401116401000000008311171561060857600080fd5b91908080601f016020809104026020016040519081016040528093929190818152602001838380828437600081840152601f19601f820116905080830192505050505050509192919290505050610cc9565b005b6106886004803603602081101561067257600080fd5b8101908080359060200190929190505050610e43565b6040518080602001828103825283818151815260200191508051906020019080838360005b838110156106c85780820151818401526020810190506106ad565b50505050905090810190601f1680156106f55780820380516001836020036101000a031916815260200191505b509250505060405180910390f35b61072f6004803603602081101561071957600080fd5b8101908080359060200190929190505050610f00565b6040518080602001828103825283818151815260200191508051906020019080838360005b8381101561076f578082015181840152602081019050610754565b50505050905090810190601f16801561079c5780820380516001836020036101000a031916815260200191505b509250505060405180910390f35b6107d6600480360360208110156107c057600080fd5b8101908080359060200190929190505050610fbd565b6040518080602001828103825283818151815260200191508051906020019080838360005b838110156108165780820151818401526020810190506107fb565b50505050905090810190601f1680156108435780820380516001836020036101000a031916815260200191505b509250505060405180910390f35b61087d6004803603602081101561086757600080fd5b810190808035906020019092919050505061107a565b005b6108ab6004803603602081101561089557600080fd5b8101908080359060200190929190505050611c88565b6040518080602001828103825283818151815260200191508051906020019080838360005b838110156108eb5780820151818401526020810190506108d0565b50505050905090810190601f1680156109185780820380516001836020036101000a031916815260200191505b509250505060405180910390f35b6109526004803603602081101561093c57600080fd5b8101908080359060200190929190505050611d45565b6040518080602001828103825283818151815260200191508051906020019080838360005b83811015610992578082015181840152602081019050610977565b50505050905090810190601f1680156109bf5780820380516001836020036101000a031916815260200191505b509250505060405180910390f35b6109f9600480360360208110156109e357600080fd5b8101908080359060200190929190505050611e02565b6040518082815260200191505060405180910390f35b610a3b60048036036020811015610a2557600080fd5b8101908080359060200190929190505050611e27565b6040518080602001828103825283818151815260200191508051906020019080838360005b83811015610a7b578082015181840152602081019050610a60565b50505050905090810190601f168015610aa85780820380516001836020036101000a031916815260200191505b509250505060405180910390f35b610abe611ee4565b6040518082815260200191505060405180910390f35b610b0060048036036020811015610aea57600080fd5b8101908080359060200190929190505050611eed565b6040518080602001828103825283818151815260200191508051906020019080838360005b83811015610b40578082015181840152602081019050610b25565b50505050905090810190601f168015610b6d5780820380516001836020036101000a031916815260200191505b509250505060405180910390f35b610ba760048036036020811015610b9157600080fd5b8101908080359060200190929190505050611faa565b6040518080602001828103825283818151815260200191508051906020019080838360005b83811015610be7578082015181840152602081019050610bcc565b50505050905090810190601f168015610c145780820380516001836020036101000a031916815260200191505b509250505060405180910390f35b610c4e60048036036020811015610c3857600080fd5b8101908080359060200190929190505050612067565b6040518080602001828103825283818151815260200191508051906020019080838360005b83811015610c8e578082015181840152602081019050610c73565b50505050905090810190601f168015610cbb5780820380516001836020036101000a031916815260200191505b509250505060405180910390f35b6040518061014001604052808381526020018b81526020018a815260200189815260200188815260200187815260200186815260200182815260200185815260200184815250600160008d8152602001908152602001600020600082015181600001556020820151816001019080519060200190610d48929190612124565b506040820151816002019080519060200190610d65929190612124565b506060820151816003019080519060200190610d82929190612124565b506080820151816004019080519060200190610d9f929190612124565b5060a0820151816005019080519060200190610dbc929190612124565b5060c0820151816006019080519060200190610dd9929190612124565b5060e0820151816007019080519060200190610df6929190612124565b50610100820151816008019080519060200190610e14929190612124565b50610120820151816009019080519060200190610e32929190612124565b509050505050505050505050505050565b606080600160008481526020019081526020016000206008018054600181600116156101000203166002900480601f016020809104026020016040519081016040528092919081815260200182805460018160011615610100020316600290048015610ef05780601f10610ec557610100808354040283529160200191610ef0565b820191906000526020600020905b815481529060010190602001808311610ed357829003601f168201915b5050505050905080915050919050565b606080600160008481526020019081526020016000206007018054600181600116156101000203166002900480601f016020809104026020016040519081016040528092919081815260200182805460018160011615610100020316600290048015610fad5780601f10610f8257610100808354040283529160200191610fad565b820191906000526020600020905b815481529060010190602001808311610f9057829003601f168201915b5050505050905080915050919050565b606080600160008481526020019081526020016000206006018054600181600116156101000203166002900480601f01602080910402602001604051908101604052809291908181526020018280546001816001161561010002031660029004801561106a5780601f1061103f5761010080835404028352916020019161106a565b820191906000526020600020905b81548152906001019060200180831161104d57829003601f168201915b5050505050905080915050919050565b6060600160008381526020019081526020016000206002018054600181600116156101000203166002900480601f0160208091040260200160405190810160405280929190818152602001828054600181600116156101000203166002900480156111265780601f106110fb57610100808354040283529160200191611126565b820191906000526020600020905b81548152906001019060200180831161110957829003601f168201915b505050505090506060600160008481526020019081526020016000206003018054600181600116156101000203166002900480601f0160208091040260200160405190810160405280929190818152602001828054600181600116156101000203166002900480156111d95780601f106111ae576101008083540402835291602001916111d9565b820191906000526020600020905b8154815290600101906020018083116111bc57829003601f168201915b505050505090506060600160008581526020019081526020016000206005018054600181600116156101000203166002900480601f01602080910402602001604051908101604052809291908181526020018280546001816001161561010002031660029004801561128c5780601f106112615761010080835404028352916020019161128c565b820191906000526020600020905b81548152906001019060200180831161126f57829003601f168201915b505050505090506060600160008681526020019081526020016000206006018054600181600116156101000203166002900480601f01602080910402602001604051908101604052809291908181526020018280546001816001161561010002031660029004801561133f5780601f106113145761010080835404028352916020019161133f565b820191906000526020600020905b81548152906001019060200180831161132257829003601f168201915b5050505050905060006002836040518082805190602001908083835b6020831061137e578051825260208201915060208101905060208303925061135b565b6001836020036101000a0380198251168184511680821785525050505050509050019150509081526020016040518091039020826040518082805190602001908083835b602083106113e557805182526020820191506020810190506020830392506113c2565b6001836020036101000a0380198251168184511680821785525050505050509050019150509081526020016040518091039020856040518082805190602001908083835b6020831061144c5780518252602082019150602081019050602083039250611429565b6001836020036101000a0380198251168184511680821785525050505050509050019150509081526020016040518091039020846040518082805190602001908083835b602083106114b35780518252602082019150602081019050602083039250611490565b6001836020036101000a0380198251168184511680821785525050505050509050019150509081526020016040518091039020805490501115611a5557600060016002846040518082805190602001908083835b6020831061152a5780518252602082019150602081019050602083039250611507565b6001836020036101000a0380198251168184511680821785525050505050509050019150509081526020016040518091039020836040518082805190602001908083835b60208310611591578051825260208201915060208101905060208303925061156e565b6001836020036101000a0380198251168184511680821785525050505050509050019150509081526020016040518091039020866040518082805190602001908083835b602083106115f857805182526020820191506020810190506020830392506115d5565b6001836020036101000a0380198251168184511680821785525050505050509050019150509081526020016040518091039020856040518082805190602001908083835b6020831061165f578051825260208201915060208101905060208303925061163c565b6001836020036101000a0380198251168184511680821785525050505050509050019150509081526020016040518091039020805490500390506116a16121a4565b6002846040518082805190602001908083835b602083106116d757805182526020820191506020810190506020830392506116b4565b6001836020036101000a0380198251168184511680821785525050505050509050019150509081526020016040518091039020836040518082805190602001908083835b6020831061173e578051825260208201915060208101905060208303925061171b565b6001836020036101000a0380198251168184511680821785525050505050509050019150509081526020016040518091039020866040518082805190602001908083835b602083106117a55780518252602082019150602081019050602083039250611782565b6001836020036101000a0380198251168184511680821785525050505050509050019150509081526020016040518091039020856040518082805190602001908083835b6020831061180c57805182526020820191506020810190506020830392506117e9565b6001836020036101000a0380198251168184511680821785525050505050509050019150509081526020016040518091039020828154811061184a57fe5b90600052602060002090600202016040518060400160405290816000820154815260200160018201548152505090506002846040518082805190602001908083835b602083106118af578051825260208201915060208101905060208303925061188c565b6001836020036101000a0380198251168184511680821785525050505050509050019150509081526020016040518091039020836040518082805190602001908083835b6020831061191657805182526020820191506020810190506020830392506118f3565b6001836020036101000a0380198251168184511680821785525050505050509050019150509081526020016040518091039020866040518082805190602001908083835b6020831061197d578051825260208201915060208101905060208303925061195a565b6001836020036101000a0380198251168184511680821785525050505050509050019150509081526020016040518091039020856040518082805190602001908083835b602083106119e457805182526020820191506020810190506020830392506119c1565b6001836020036101000a03801982511681845116808217855250505050505090500191505090815260200160405180910390208281548110611a2257fe5b90600052602060002090600202016000808201600090556001820160009055505080600001516000819055505050611c81565b620f4240600081905550611a676121a4565b60405180604001604052808781526020017fffffffffffffffffffffffffffffffffffffffffffffffffffffffffffffffff81525090506002856040518082805190602001908083835b60208310611ad45780518252602082019150602081019050602083039250611ab1565b6001836020036101000a0380198251168184511680821785525050505050509050019150509081526020016040518091039020846040518082805190602001908083835b60208310611b3b5780518252602082019150602081019050602083039250611b18565b6001836020036101000a0380198251168184511680821785525050505050509050019150509081526020016040518091039020836040518082805190602001908083835b60208310611ba25780518252602082019150602081019050602083039250611b7f565b6001836020036101000a0380198251168184511680821785525050505050509050019150509081526020016040518091039020826040518082805190602001908083835b60208310611c095780518252602082019150602081019050602083039250611be6565b6001836020036101000a038019825116818451168082178552505050505050905001915050908152602001604051809103902081908060018154018082558091505090600182039060005260206000209060020201600090919290919091506000820151816000015560208201518160010155505050505b5050505050565b606080600160008481526020019081526020016000206005018054600181600116156101000203166002900480601f016020809104026020016040519081016040528092919081815260200182805460018160011615610100020316600290048015611d355780601f10611d0a57610100808354040283529160200191611d35565b820191906000526020600020905b815481529060010190602001808311611d1857829003601f168201915b5050505050905080915050919050565b606080600160008481526020019081526020016000206004018054600181600116156101000203166002900480601f016020809104026020016040519081016040528092919081815260200182805460018160011615610100020316600290048015611df25780601f10611dc757610100808354040283529160200191611df2565b820191906000526020600020905b815481529060010190602001808311611dd557829003601f168201915b5050505050905080915050919050565b6000806001600084815260200190815260200160002060000154905080915050919050565b606080600160008481526020019081526020016000206002018054600181600116156101000203166002900480601f016020809104026020016040519081016040528092919081815260200182805460018160011615610100020316600290048015611ed45780601f10611ea957610100808354040283529160200191611ed4565b820191906000526020600020905b815481529060010190602001808311611eb757829003601f168201915b5050505050905080915050919050565b60008054905090565b606080600160008481526020019081526020016000206001018054600181600116156101000203166002900480601f016020809104026020016040519081016040528092919081815260200182805460018160011615610100020316600290048015611f9a5780601f10611f6f57610100808354040283529160200191611f9a565b820191906000526020600020905b815481529060010190602001808311611f7d57829003601f168201915b5050505050905080915050919050565b606080600160008481526020019081526020016000206003018054600181600116156101000203166002900480601f0160208091040260200160405190810160405280929190818152602001828054600181600116156101000203166002900480156120575780601f1061202c57610100808354040283529160200191612057565b820191906000526020600020905b81548152906001019060200180831161203a57829003601f168201915b5050505050905080915050919050565b606080600160008481526020019081526020016000206009018054600181600116156101000203166002900480601f0160208091040260200160405190810160405280929190818152602001828054600181600116156101000203166002900480156121145780601f106120e957610100808354040283529160200191612114565b820191906000526020600020905b8154815290600101906020018083116120f757829003601f168201915b5050505050905080915050919050565b828054600181600116156101000203166002900490600052602060002090601f016020900481019282601f1061216557805160ff1916838001178555612193565b82800160010185558215612193579182015b82811115612192578251825591602001919060010190612177565b5b5090506121a091906121be565b5090565b604051806040016040528060008152602001600081525090565b6121e091905b808211156121dc5760008160009055506001016121c4565b5090565b9056fea265627a7a723158208eeeef55876e166b6103d1eb6c09457bcf65243c5e4a854696efa05eb0498f6264736f6c63430005100032",
  "source": "pragma solidity >=0.5.0 <0.7.0;\ncontract OrganTry {\n    struct details {\n        uint256 hospitalid;\n        string aname;\n        string ablood;\n        string ahla;\n        string dname;\n        string dblood;\n        string dhla;\n        string hname;\n        string demail;\n        string aemail;\n\n    }\n    uint256 hos1;\n    mapping(uint256 => details) waitinglist;\n\n    struct pairstatus {\n        uint256 np;\n        int256 cp;\n    }\n\n    mapping(string => mapping(string => mapping(string => mapping(string => pairstatus[]))))lists;\n\n    function setkaro(\n        uint256 _id,\n        string memory _aname,\n        string memory _ablood,\n        string memory _ahla,\n        string memory _dname,\n        string memory _dblood,\n        string memory _dhla,\n        string memory _demail,\n        string memory _aemail,\n        uint _hospitalid,\n        string memory _hname\n    ) public {\n        waitinglist[_id] = details(_hospitalid, _aname, _ablood, _ahla, _dname, _dblood,_dhla,_hname,_demail,_aemail);\n   \n    }\n\n\n    function findMatch(uint256 _id)\n        public\n    {\n        string memory ablood = waitinglist[_id].ablood;\n        string memory ahla = waitinglist[_id].ahla;\n        string memory dblood = waitinglist[_id].dblood;\n        string memory dhla = waitinglist[_id].dhla;\n        if(lists[dblood][dhla][ablood][ahla].length>0)\n        {\n        uint256 index = lists[dblood][dhla][ablood][ahla].length - 1;\n        pairstatus memory element = lists[dblood][dhla][ablood][ahla][index];\n        delete lists[dblood][dhla][ablood][ahla][index];\n        hos1 = element.np;\n        }\n        else \n        {\n            hos1 = 1000000;\n            pairstatus memory ps = pairstatus (_id, -1);\n            lists[ablood][ahla][dblood][dhla].push(ps);\n        }\n\n        \n    }\n    function newbee()\n    public \n    view \n    returns(uint256)\n    {\n        return hos1;\n\n    }\n\n    function rdn(uint256 _id) public view returns(string memory) \n    {\n        string memory name = waitinglist[_id].dname;\n        return(name);\n    }\n\n       function hn(uint256 _id) public view returns(string memory) \n    {\n        string memory name = waitinglist[_id].hname;\n        return(name);\n    }\n    function rdblood(uint256 _id) public view returns(string memory)\n    {\n        string memory blood = waitinglist[_id].dblood;\n        return(blood);  \n    }\n    function rdhla(uint256 _id) public view returns(string memory) \n    {\n        string memory hla = waitinglist[_id].dhla;\n        return(hla);\n    }\n    function raname(uint256 _id) public view returns(string memory) \n    {\n        string memory name = waitinglist[_id].aname;\n        return(name);\n    }\n    function rablood(uint256 _id) public view returns(string memory)\n    {\n        string memory blood = waitinglist[_id].ablood;\n        return(blood);  \n    }\n    function rahla(uint256 _id) public view returns(string memory) \n    {\n        string memory hla = waitinglist[_id].ahla;\n        return(hla);\n    }\n    function rhosp(uint256 _id) public view returns(uint) \n    {\n        uint256 hospitalid = waitinglist[_id].hospitalid;\n        return(hospitalid);\n    }\n     function demai(uint256 _id) public view returns(string memory) \n    {\n        string memory email = waitinglist[_id].demail;\n        return(email);\n    }\n    function aemai(uint256 _id) public view returns(string memory) \n    {\n        string memory email = waitinglist[_id].aemail;\n        return(email);\n    }\n}\n\n\n\n\n\n\n       ",
  "sourcePath": "/mnt/d/final/organ-donor/truffle/contracts/OrganTry.sol",
  "compiler": {
    "name": "solc",
    "version": "0.5.16+commit.9c3226ce.Emscripten.clang"
  },
  "schemaVersion": "3.2.0",
  "updatedAt": "2020-06-16T01:31:05.723Z",
  "networkType": "ethereum",
  "devdoc": {
    "methods": {}
  },
  "userdoc": {
    "methods": {}
  }
}